:100000000C9446000C946E000C946E000C946E00E0
:100010000C946E000C946E000C946E000C946E00A8
:100020000C946E000C946E000C946E000C946E0098
:100030000C946E000C946E000C946E000C946E0088
:100040000C94120B0C946E000C94BB0A0C94950A41
:100050000C946E000C946E000C946E000C946E0068
:100060000C946E000C946E006B0672067906800686
:1000700087068E0695069C06010808080F081608D4
:100080001D0824082B0832085C0B0F0C11241FBE1E
:10009000CFEFD8E0DEBFCDBF27E0A0E1B7E001C0E1
:1000A0001D92A23CB207E1F717E0A0E0B1E0E6E064
:1000B000FDE102C005900D92A031B107D9F710E023
:1000C000C5E4D0E004C02197FE010E944A0CC4346C
:1000D000D107C9F70E948E0B0C94760E0C94000089
:1000E0000F931F93CF93DF9300D000D000D0CDB7F4
:1000F000DEB78C0168E171E0CE0101960E94800AB2
:10010000BE016F5F7F4FC8010E9495098C01CE012F
:1001100001960E94610A0F3F1F4F19F08CE191E098
:100120000EC088E094E00E94870987E094E00E9476
:1001300087098DE291E00E94870984E591E00E94A1
:10014000870926960FB6F894DEBF0FBECDBFDF91AC
:10015000CF911F910F910895EF92FF920F931F93EC
:10016000CF93DF9300D000D000D0CDB7DEB78C01A5
:1001700068E171E0CE0101960E94800ABE016F5FC6
:100180007F4FC8010E9495097C01CE0101960E9413
:10019000610AEF20E09479F160E871E0CE01019608
:1001A0000E94800ABE016F5F7F4FC8010E949509BF
:1001B0007C01CE0101960E94610AEF20E09421F0BB
:1001C0008BE891E00E94870969EA71E0CE0101960F
:1001D0000E94800ABE016F5F7F4FC8010E9495098F
:1001E0008C01CE0101960E94610A0F3F1F4F59F109
:1001F00082EB91E026C06DEE71E0CE0101960E9487
:10020000800ABE016F5F7F4FC8010E9495098C0173
:10021000CE0101960E94610A0F3F1F4F21F080EF2F
:1002200091E00E94870988E094E00E94870987E0B6
:1002300094E00E94870980E891E00E94870989EA9A
:1002400091E00E94870926960FB6F894DEBF0FBE94
:10025000CDBFDF91CF911F910F91FF90EF90089547
:100260000F931F93CF93DF9300D000D000D0CDB772
:10027000DEB78C0168E171E0CE0101960E94800A30
:10028000BE016F5F7F4FC8010E9495098C01CE01AE
:1002900001960E94610A0F3F1F4F19F088EF91E00D
:1002A0000EC088E094E00E94870987E094E00E94F5
:1002B00087098AE092E00E94870989E192E00E9422
:1002C000870926960FB6F894DEBF0FBECDBFDF912B
:1002D000CF911F910F9108950F931F93CF93DF93A9
:1002E00000D000D000D0CDB7DEB78C0168E171E05E
:1002F000CE0101960E94800ABE016F5F7F4FC80148
:100300000E9495098C01CE0101960E94610A0F3F5F
:100310001F4F19F088EF91E012C088E094E00E942E
:10032000870987E094E00E94870984E292E00E94B6
:10033000870980E392E00E9487098BE392E00E94A4
:10034000870926960FB6F894DEBF0FBECDBFDF91AA
:10035000CF911F910F9108950F931F93CF93DF9328
:1003600000D000D000D0CDB7DEB78C0168E171E0DD
:10037000CE0101960E94800ABE016F5F7F4FC801C7
:100380000E9495098C01CE0101960E94610A0F3FDF
:100390001F4F19F08CE492E012C088E094E00E94B4
:1003A000870987E094E00E94870981E692E00E9435
:1003B000870986E792E00E94870981EB92E00E941C
:1003C000870926960FB6F894DEBF0FBECDBFDF912A
:1003D000CF911F910F910895EF92FF920F931F936A
:1003E000CF93DF9300D000D000D0CDB7DEB78C0123
:1003F00068E171E0CE0101960E94800ABE016F5F44
:100400007F4FC8010E9495097C01CE0101960E9490
:10041000610AEF20E09499F16DEB72E0CE01019654
:100420000E94800ABE016F5F7F4FC8010E9495093C
:100430007C01CE0101960E94610AEF20E09441F018
:100440008AEC92E00E94870988ED92E00E94870979
:100450006CEE72E0CE0101960E94800ABE016F5FD1
:100460007F4FC8010E9495098C01CE0101960E9420
:10047000610A0F3F1F4F99F089EF92E00EC088E0AC
:1004800094E00E94870987E094E00E9487098DEB41
:1004900092E00E9487098CEE92E00E9487092696DE
:1004A0000FB6F894DEBF0FBECDBFDF91CF911F9185
:1004B0000F91FF90EF9008950F931F93CF93DF93C9
:1004C00000D000D000D0CDB7DEB78C016DEE71E06A
:1004D000CE0101960E94800ABE016F5F7F4FC80166
:1004E0000E9495098C01CE0101960E94610A0F3F7E
:1004F0001F4F21F08DE193E00E94870988E094E08E
:100500000E94870987E094E00E94870986E293E0D1
:100510000E9487098BE293E00E94870926960FB616
:10052000F894DEBF0FBECDBFDF91CF911F910F9129
:100530000895EF92FF920F931F93CF93DF9300D014
:1005400000D000D0CDB7DEB78C0168E171E0CE01FC
:1005500001960E94800ABE016F5F7F4FC8010E9412
:1005600095097C01CE0101960E94610AEF20E0947A
:10057000B9F062E573E0CE0101960E94800ABE01E7
:100580006F5F7F4FC8010E9495098C01CE010196D3
:100590000E94610A0F3F1F4FB9F181E393E032C01F
:1005A0006DEE71E0CE0101960E94800ABE016F5F80
:1005B0007F4FC8010E9495098C01CE0101960E94CF
:1005C000610A0F3F1F4F21F081E593E00E948709E8
:1005D0008EE193E00E94870981E693E00E948709FB
:1005E0008BE693E00E94870985E793E00E948709E4
:1005F0008BE793E00E94870984E893E00E948709D3
:100600008BE893E00E94870926960FB6F894DEBF28
:100610000FBECDBFDF91CF911F910F91FF90EF9053
:1006200008958F929F92AF92BF92EF92FF920F9395
:100630001F93CF93DF9300D0CDB7DEB78C0168E175
:1006400074E00E94800A8FB7F8948090120790900F
:100650001307A0901407B09015078FBF88EC880E81
:10066000911CA11CB11C2FB7F89480911207909196
:100670001307A0911407B09115072FBF881599058E
:10068000AA05BB0540F586E197E00E94C908892BC1
:1006900051F386E197E00E94A70889831A82F80146
:1006A000E480F580FFEFEF1AFF0AB701C8010E944E
:1006B000E809882341F3F801208131818481958103
:1006C000BE016F5F7F4F820F931F0E94550EF8018E
:1006D000F582E482D8CFC8010F900F90DF91CF91BF
:1006E0001F910F91FF90EF90BF90AF909F908F90D0
:1006F00008952F923F924F925F926F927F928F92C6
:100700009F92AF92BF92CF92DF92EF92FF920F93A0
:100710001F93CF93DF93CDB7DEB768970FB6F894EA
:10072000DEBF0FBECDBF82E993E00E94870986EA53
:1007300093E00E94870980EB93E00E94870986E19D
:1007400097E00E94C908892BD1F368E174E0CE01DB
:1007500007960E94800ACE0101960E941103BE01F5
:100760006F5F7F4FCE0107960E94AF09CE010196C1
:100770000E94610A68EB73E0CE0101960E94800A34
:10078000BE016F5F7F4FCE0107960E9495098C01D5
:10079000CE0101960E94610A0F3F1F4F39F56AEBA7
:1007A00073E0CE0101960E94800ABE016F5F7F4F09
:1007B000CE0107960E9495098C01CE0101960E94F8
:1007C000610A0F3F1F4F09F45CC483E696E00E9464
:1007D00087098FE996E00E9487098AEC96E00E94DB
:1007E000870980EE96E00E9487094BC48CEB93E06A
:1007F0000E94870988EC93E00E94870984ED93E0CA
:100800000E94870982EE93E00E9487098FEE93E0B1
:100810000E94870997E0E92EF12C25E0222E312C49
:1008200034E0C32ED12C43E0A42EB12C52E0852E0F
:10083000912C66246394712C80911007909111077C
:1008400097FDADCF8AE094E00E9475094091B7070B
:100850005091B8076091B3077091B40786E197E0B3
:100860000E94690886E197E00E94C908892BD1F3AC
:1008700068E174E0CE0101960E94800ACE010D96D7
:100880000E941103BE01635F7F4FCE0101960E945B
:10089000AF09CE010D960E94610A4D815E8169818A
:1008A0007A8186E197E00E94690886E194E00E94DF
:1008B000750964EB73E0CE010D960E94800ABE01BB
:1008C000635F7F4FCE0101960E9495092C01CE01F6
:1008D0000D960E94610A4520409409F4A9C068E180
:1008E00071E0CE010D960E94800ABE01635F7F4FCA
:1008F000CE0101960E9495092C01CE010D960E9411
:10090000610A4520409499F089E194E00E948709AA
:1009100083E594E00E9487098CE594E00E948709B2
:100920008AE694E00E94870986E794E07FC065E844
:1009300074E0CE010D960E94800ABE01635F7F4F76
:10094000CE0101960E9495092C01CE010D960E94C0
:10095000610A4520409499F088E894E00E94870954
:1009600083E594E00E9487098EE994E00E9487095C
:100970008AE694E00E94870980EB94E057C064E522
:1009800075E0CE010D960E94800ABE01635F7F4F25
:10099000CE0101960E9495092C01CE010D960E9470
:1009A000610A45204094B9F084EC94E00E948709E4
:1009B00083E594E00E94870981EE94E00E94870914
:1009C0008AE694E00E9487098CEF94E00E948709F0
:1009D00081E095E02BC064EB73E0CE010D960E94A0
:1009E000800ABE01635F7F4FCE0101960E94950988
:1009F0002C01CE010D960E94610A45204094C1F061
:100A00008BE295E00E94870983E594E00E948709C4
:100A100087E595E00E9487098AE694E00E948709AD
:100A200087E695E00E9487098AEC95E00E94870995
:100A300062EF76E0CE0143960E94800ABE016D5EB1
:100A40007F4FCE0101960E9495090196B1F064EBAB
:100A500073E0CE010D960E94800ABE01635F7F4F56
:100A6000CE0101960E94950911E0019609F010E06F
:100A7000CE010D960E94610A01C010E0CE0143969E
:100A80000E94610A112361F187EF95E00E948709B6
:100A90000E94ED0A4B015C0180EDC82E87E0D82E44
:100AA000E12CF12C0E94ED0ADC01CB018819990997
:100AB000AA09BB09883E9340A105B10558F081E021
:100AC000C81AD108E108F10898EE890E93E0991E42
:100AD000A11CB11CC114D104E104F10419F7D7C25F
:100AE00064E575E0CE0143960E94800ABE016D5E0A
:100AF0007F4FCE0101960E9495090196B1F064EBFB
:100B000073E0CE010D960E94800ABE01635F7F4FA5
:100B1000CE0101960E94950901E0019609F000E0DE
:100B2000CE010D960E94610A01C000E0CE014396FD
:100B30000E94610A002309F409C16EE173E0CE014D
:100B40000D960E94800ABE01635F7F4FCE01019621
:100B50000E9495092C01CE010D960E94610A452044
:100B6000409431F0BE016F5F7F4FCE010D96BAC049
:100B700061E673E0CE010D960E94800ABE01635FBC
:100B80007F4FCE0101960E9495092C01CE010D9652
:100B90000E94610A4520409431F0BE016F5F7F4F93
:100BA000CE010D96A6C06BE673E0CE010D960E94B5
:100BB000800ABE01635F7F4FCE0101960E949509B6
:100BC0002C01CE010D960E94610A4520409431F01F
:100BD000BE016F5F7F4FCE010D9692C065E773E057
:100BE000CE010D960E94800ABE01635F7F4FCE0149
:100BF00001960E9495092C01CE010D960E94610A72
:100C00004520409431F0BE016F5F7F4FCE010D96BD
:100C10007EC06BE773E0CE010D960E94800ABE0194
:100C2000635F7F4FCE0101960E9495092C01CE0192
:100C30000D960E94610A4520409431F0BE016F5F1D
:100C40007F4FCE010D966AC064E873E0CE010D9629
:100C50000E94800ABE01635F7F4FCE0101960E9411
:100C600095092C01CE010D960E94610A4520409401
:100C700031F0BE016F5F7F4FCE010D9656C06BE81D
:100C800073E0CE010D960E94800ABE01635F7F4F24
:100C9000CE0101960E9495092C01CE010D960E946D
:100CA000610A4520409431F0BE016F5F7F4FCE0155
:100CB0000D9642C0E0911007F0911107E830F10560
:100CC00008F044C0EC5CFF4FBE016F5F7F4FCE0168
:100CD0000D960C944A0C0E94660ACE010D960E9455
:100CE000990230C00E94660ACE010D960E945C02F5
:100CF00029C00E94660ACE010D960E94EC0122C016
:100D00000E94660ACE010D960E94AC011BC00E9493
:100D1000660ACE010D960E946C0114C00E94660AFC
:100D2000CE010D960E9430010DC00E94660ACE01D0
:100D30000D960E94AC0006C00E94660ACE010D9678
:100D40000E947000CE010D960E94610A65E874E071
:100D5000CE0143960E94800ABE016D5E7F4FCE0198
:100D600001960E9495090196B1F064EB73E0CE0103
:100D70000D960E94800ABE01635F7F4FCE010196EF
:100D80000E94950901E0019609F000E0CE010D9660
:100D90000E94610A01C000E0CE0143960E94610AF0
:100DA000002309F4F2C06EE173E0CE010D960E94BB
:100DB000800ABE01635F7F4FCE0101960E949509B4
:100DC0002C01CE010D960E94610A4520409439F015
:100DD00070921107609210078EE096E01BC061E6EA
:100DE00073E0CE010D960E94800ABE01635F7F4FC3
:100DF000CE0101960E9495092C01CE010D960E940C
:100E0000610A4520409449F09092110780921007A2
:100E100088E196E00E943A0AAEC06BE673E0CE012C
:100E20000D960E94800ABE01635F7F4FCE0101963E
:100E30000E9495092C01CE010D960E94610A452061
:100E4000409439F0B0921107A092100784E296E026
:100E5000E1CF65E773E0CE010D960E94800ABE01E6
:100E6000635F7F4FCE0101960E9495092C01CE0150
:100E70000D960E94610A4520409439F0D0921107E6
:100E8000C092100780E396E0C5CF6BE773E0CE0118
:100E90000D960E94800ABE01635F7F4FCE010196CE
:100EA0000E9495092C01CE010D960E94610A4520F1
:100EB000409439F0309211072092100788E396E0B1
:100EC000A9CF64E873E0CE010D960E94800ABE01AE
:100ED000635F7F4FCE0101960E9495092C01CE01E0
:100EE0000D960E94610A4520409449F086E090E00A
:100EF000909311078093100783E496E08BCF6BE803
:100F000073E0CE010D960E94800ABE01635F7F4FA1
:100F1000CE0101960E9495092C01CE010D960E94EA
:100F2000610A4520409439F0F0921107E0921007D1
:100F30008CE496E06FCF67E074E0CE010D960E94DE
:100F4000800ABE01635F7F4FCE0101960E94950922
:100F50002C01CE010D960E94610A4520409439F083
:100F600010921107109210078AE496E053CF85E59E
:100F700096E00E94870980911007909111070897C9
:100F800024F0F0921107E092100768E171E0CE01C1
:100F900043960E94800ABE016D5E7F4FCE0101968E
:100FA0000E9495090196A9F064EB73E0CE010D96BD
:100FB0000E94800ABE01635F7F4FCE0101960E94AE
:100FC000950911E0019609F010E0CE010D960E94FE
:100FD000610ACE0143960E94610A112309F44CC0B4
:100FE000E0911007F0911107E830F10508F044C0D6
:100FF000E45CFF4FBE016F5F7F4FCE010D960C94F6
:101000004A0C0E94660ACE010D960E94990230C0D9
:101010000E94660ACE010D960E945C0229C00E94C1
:10102000660ACE010D960E94EC0122C00E94660A5B
:10103000CE010D960E94AC011BC00E94660ACE0133
:101040000D960E946C0114C00E94660ACE010D9696
:101050000E9430010DC00E94660ACE010D960E94CA
:10106000AC0006C00E94660ACE010D960E94700078
:10107000CE010D960E94610ACE0101960E94610A7E
:10108000DBCB65E874E0CE0101960E94800ACE01B8
:1010900001960E94610ACE0107960E94610A689635
:1010A0000FB6F894DEBF0FBECDBFDF91CF911F9179
:1010B0000F91FF90EF90DF90CF90BF90AF909F90F7
:1010C0008F907F906F905F904F903F902F900895FA
:1010D0000895CF92DF92EF92FF920F931F93CF93D9
:1010E000DF936C017A018B01C0E0D0E0CE15DF0503
:1010F00089F0D8016D918D01D601ED91FC9101909F
:10110000F081E02DC6010995892B11F47E0102C002
:101110002196ECCFC701DF91CF911F910F91FF90E6
:10112000EF90DF90CF900895089580E090E00895CB
:10113000FC01538D448D252F30E0842F90E0821BDD
:10114000930B541710F0CF96089501970895FC0162
:10115000918D828D981761F0828DDF01A80FB11DEE
:101160005D968C91928D9F5F9F73928F90E0089512
:101170008FEF9FEF0895FC01918D828D981731F0CC
:10118000828DE80FF11D858D90E008958FEF9FEF20
:101190000895FC01918D228D892F90E0805C9F4FF6
:1011A000821B91098F739927089586E197E00E9429
:1011B000C90821E0892B09F420E0822F0895FC0161
:1011C000848DDF01A80FB11DA35ABF4F2C91848DD0
:1011D00090E001968F739927848FA689B7892C9305
:1011E000A089B1898C9180648C93938D848D9813A0
:1011F00006C00288F389E02D80818F7D8083089569
:10120000EF92FF920F931F93CF93DF93EC0181E056
:10121000888F9B8D8C8D981305C0E889F989808112
:1012200085FD24C0F62E0B8D10E00F5F1F4F0F734E
:101230001127E02E8C8DE8120CC00FB607FCFACFF8
:10124000E889F989808185FFF5CFCE010E94DF080A
:10125000F1CF8B8DFE01E80FF11DE35AFF4FF082B5
:101260000B8FEA89FB898081806207C0EE89FF8944
:101270006083E889F98980818064808381E090E0DF
:10128000DF91CF911F910F91FF90EF900895CF9331
:10129000DF93EC01888D8823C9F0EA89FB8980817E
:1012A00085FD05C0A889B9898C9186FD0FC00FB650
:1012B00007FCF5CF808185FFF2CFA889B9898C9191
:1012C00085FFEDCFCE010E94DF08E7CFDF91CF9100
:1012D000089580E090E0892B29F00E94D5088111C3
:1012E0000C94000008950E94470E009769F0FC01DD
:1012F00001900020E9F73197AF01481B590BBC0161
:1013000086E197E00C94690880E090E00895CF931F
:10131000DF930E947509EC0186E194E00E94750953
:101320008C0F9D1FDF91CF910895CF93DF93FC0128
:1013300024813581232B71F0FB01DC01CD91DC91FF
:1013400060817181CE010E945C0E009719F08C1BA8
:101350009D0B02C08FEF9FEFDF91CF9108950F9308
:101360001F93CF93DF938C01EB01FC01808191816E
:101370000097B1F0688179816115710579F042813A
:1013800053812C813D814217530740F00E94550E36
:101390008C819D81F8019583848313C00E94E50CA4
:1013A00088819981F801918380838A819B819383CD
:1013B00082838C819D8195838483198218821B820C
:1013C0001A821D821C82DF91CF911F910F91089587
:1013D0000F931F93CF93DF93EC018881998100973E
:1013E00029F02A813B812617370788F48B016F5F2C
:1013F0007F4F0E947D0D009761F0998388831B8346
:101400000A832C813D81232B11F4FC01108281E0A1
:1014100001C080E0DF91CF911F910F910895EF926D
:10142000FF920F931F93CF93DF93EC017B018A010F
:10143000BA010E94E8092881398181110DC0211566
:10144000310519F0C9010E94E50C198218821D822C
:101450001C821B821A8206C01D830C83B701C9013E
:101460000E94550ECE01DF91CF911F910F91FF90F9
:10147000EF900895009771F0FC0101900020E9F7CA
:101480003197AF01481B590BBC0183EB97E00E94D9
:101490000F0A14C08091B3079091B407009711F020
:1014A0000E94E50C1092B4071092B3071092B8078F
:1014B0001092B7071092B6071092B50783EB97E02A
:1014C0000895FC01808191810C94E50CFB01DC0105
:1014D00011961C921E9213961C921E9212971596AC
:1014E0001C921E9214978617970749F060817181AC
:1014F0006115710521F0448155810C940F0A0895FE
:10150000FC011182108213821282158214826115ED
:10151000710551F0FB0101900020E9F73197AF010F
:10152000461B570B0C940F0A08951F920F920FB68B
:101530000F9211242F933F934F935F936F937F9359
:101540008F939F93AF93BF93EF93FF9386E197E0C1
:101550000E94DF08FF91EF91BF91AF919F918F9112
:101560007F916F915F914F913F912F910F900FBE9F
:101570000F901F9018951F920F920FB60F92112483
:101580002F938F939F93EF93FF93E0912607F09112
:1015900027078081E0912C07F0912D0782FD12C072
:1015A000908180912F078F5F8F7320913007821772
:1015B00051F0E0912F07F0E0EA5EF84F958F8093AD
:1015C0002F0701C08081FF91EF919F918F912F9103
:1015D0000F900FBE0F901F9018953FB7F894809111
:1015E000BA079091BB07A091BC07B091BD0726B583
:1015F000A89B05C02F3F19F00196A11DB11D3FBF4B
:10160000BA2FA92F982F8827820F911DA11DB11DD8
:10161000BC01CD0142E0660F771F881F991F4A95D4
:10162000D1F708951F920F920FB60F9211242F93A6
:101630003F938F939F93AF93BF93809112079091A5
:101640001307A0911407B09115073091B90723E053
:10165000230F2D3720F40196A11DB11D05C026E8EA
:10166000230F0296A11DB11D2093B9078093120785
:1016700090931307A0931407B09315078091BA07AE
:101680009091BB07A091BC07B091BD070196A11D29
:10169000B11D8093BA079093BB07A093BC07B0938A
:1016A000BD07BF91AF919F918F913F912F910F9067
:1016B0000FBE0F901F901895E6E1F7E0138212829B
:1016C00088EE93E0A0E0B0E084839583A683B7839F
:1016D0008AE091E09183808385EC90E09587848710
:1016E00084EC90E09787868780EC90E0918B808BEC
:1016F00081EC90E0938B828B82EC90E0958B848BD5
:1017000086EC90E0978B868B118E128E138E148E42
:101710006AE476E083EB97E00C94800A789484B5D1
:10172000826084BD84B5816084BD85B5826085BDDD
:1017300085B5816085BD80916E00816080936E006B
:10174000109281008091810082608093810080915D
:10175000810081608093810080918000816080930E
:1017600080008091B10084608093B1008091B000CE
:1017700081608093B00080917A00846080937A00C9
:1017800080917A00826080937A0080917A008160F3
:1017900080937A0080917A00806880937A0010921A
:1017A000C100E0912607F091270782E08083E09155
:1017B0002207F09123071082E0912407F09125077A
:1017C00087E6808310922E07E0912A07F0912B077D
:1017D00086E08083E0912807F0912907808180616D
:1017E0008083E0912807F0912907808188608083B9
:1017F000E0912807F0912907808180688083E0913B
:101800002807F091290780818F7D808387EF96E0FC
:101810000E9487090E9479030E946909FBCF83EB2C
:1018200097E00C94610A2F923F924F925F926F92D1
:101830007F928F929F92AF92BF92CF92DF92EF9260
:10184000FF920F931F93CF93DF93CDB7DEB7CA1BE1
:10185000DB0B0FB6F894DEBF0FBECDBF09942A880C
:10186000398848885F846E847D848C849B84AA84B4
:10187000B984C884DF80EE80FD800C811B81AA8141
:10188000B981CE0FD11D0FB6F894DEBF0FBECDBF0C
:10189000ED010895EE0FFF1F0590F491E02D0994DE
:1018A000CF93DF938230910510F482E090E0E091D5
:1018B000C007F091C10720E030E0C0E0D0E03097F1
:1018C00011F14081518148175907C0F04817590755
:1018D00061F482819381209719F09B838A832BC0C6
:1018E0009093C1078093C00726C02115310519F0D8
:1018F0004217530718F49A01BE01DF01EF0102807D
:10190000F381E02DDCCF2115310509F1281B390BBE
:101910002430310590F412968D919C9113976115A6
:10192000710521F0FB019383828304C09093C1076A
:101930008093C007FD01329644C0FD01E20FF31F02
:1019400081939193225031092D933C933AC0209179
:10195000BE073091BF07232B41F420910201309143
:1019600003013093BF072093BE07209100013091FF
:1019700001012115310541F42DB73EB74091040115
:1019800050910501241B350BE091BE07F091BF0774
:10199000E217F307A0F42E1B3F0B2817390778F046
:1019A000AC014E5F5F4F2417350748F04E0F5F1FA5
:1019B0005093BF074093BE078193919302C0E0E02C
:1019C000F0E0CF01DF91CF9108950F931F93CF9354
:1019D000DF93009709F48CC0FC01329713821282C6
:1019E0000091C0071091C1070115110581F42081F4
:1019F0003181820F931F2091BE073091BF072817B6
:101A0000390779F5F093BF07E093BE0771C0D8019D
:101A100040E050E0AE17BF0750F412962D913C9174
:101A20001397AD012115310509F1D901F3CF9D01BE
:101A3000DA013383228360817181860F971F8217B9
:101A4000930769F4EC0128813981260F371F2E5F37
:101A50003F4F318320838A819B8193838283452BEF
:101A600029F4F093C107E093C00742C01396FC939A
:101A7000EE931297ED01499159919E01240F351F64
:101A8000E217F30771F480819181840F951F02960C
:101A900011969C938E938281938113969C938E933F
:101AA0001297E0E0F0E0D80112968D919C91139787
:101AB000009719F0F8018C01F6CF8D919C91980157
:101AC0002E5F3F4F820F931F2091BE073091BF07BB
:101AD0002817390769F4309729F41092C10710923A
:101AE000C00702C0138212821093BF070093BE0783
:101AF000DF91CF911F910F910895A0E0B0E0E3E84E
:101B0000FDE00C94170CEC01009721F4CB010E942E
:101B1000500CB8C0FC01E60FF71F9C0122503109A0
:101B2000E217F30708F4ACC0D9010D911C9111978D
:101B300006171707B0F00530110508F49FC0C8015B
:101B400004978617970708F499C002501109061BDD
:101B5000170B019311936D937C93CF010E94E50CB9
:101B60008DC05B01A01AB10A4C01800E911EA0919C
:101B7000C007B091C10740E050E0E12CF12C109774
:101B800009F44AC0A815B905D1F56D907C9011975C
:101B9000630182E0C80ED11CCA14DB0480F1A301EA
:101BA0004A195B096A0182E0C80ED11C1296BC90EA
:101BB00012971396AC91B5E0CB16D10440F0B282E7
:101BC000A38351834083D9016D937C930AC00E5F38
:101BD0001F4FC301800F911FF90191838083EB2D6B
:101BE000FA2FE114F10431F0D7011396FC93EE9330
:101BF000129744C0F093C107E093C0073FC08D9196
:101C00009C9111974817590708F4AC017D01129671
:101C10000D90BC91A02DB3CF8091BE079091BF07CE
:101C200088159905E1F446175707C8F4809100011B
:101C300090910101009741F48DB79EB74091040146
:101C400050910501841B950BE817F907C8F4F09330
:101C5000BF07E093BE07F901718360830FC0CB011A
:101C60000E94500C7C01009759F0A801BE010E940F
:101C70004C0ECE010E94E50CC70104C0CE0102C08B
:101C800080E090E0CDB7DEB7EEE00C94330C81E05D
:101C900090E0F8940C94760EFB01DC0102C00190F8
:101CA0000D9241505040D8F70895FB01DC0101909E
:101CB0000D920020E1F70895FB0151915523A9F001
:101CC000BF01DC014D9145174111E1F759F4CD01F8
:101CD0000190002049F04D9140154111C9F3FB01DD
:101CE0004111EFCF81E090E00197089510E0C5E445
:101CF000D0E004C0FE010E944A0C2196C634D107F0
:061D0000C9F7F894FFCFC3
:101D06000000C2078000000000000009690898086A
:101D16004709C908A708BB0863617400556E737547
:101D260070706F727465642066696C6500417665D3
:101D36006E676572456E6467616D655F57454252B1
:101D46006970783236342D5B5954532E4C545D2EBF
:101D56006D70340068617272795F706F7474657249
:101D66005F616E645F64656174686C795F68616CFD
:101D76006C6F77735F706172745F322E6D703400B2
:101D86005365637265742E747874006C697374207D
:101D9600686F6D652C20656E636F64652F6465637F
:101DA6006F646520623634200048696E742E74783C
:101DB6007400436865636B206D616E206F662063F7
:101DC6006F6D6D616E647320666F72206D6F7265E4
:101DD600206F7074696F6E2C20736F6D65746869FF
:101DE6006E672069732068696464656E002D610002
:101DF6002E54726173687E00756E737570706F72A3
:101E06007465642066696C6573006D79207069631A
:101E1600747572652E706E67006A6F6B65722E6AD6
:101E260070656700486170706965722E6D70330069
:101E360072616B74696D2E6D703300776973655FBF
:101E46006D616E5F7361792E6D7033006F706572B0
:101E560061746520756E7375636365737366756CFF
:101E6600004C6561726E435050696E32316461791F
:101E7600732E706466005370696465726D616E5F7F
:101E86006661725F66726F6D5F686F6D655F323037
:101E960031395F31303830705F574542526970785A
:101EA6003236342D5B5954532E4C545D2E6D70349E
:101EB60000556E69787475742E7A697000646F6364
:101EC600756D656E742E747874007468696E6773C8
:101ED60020746F20646F3A006D616B6520657665CE
:101EE60072797468696E672066756E006D795374D1
:101EF600756666732E747874007265616C6C7920F1
:101F060062616420746F206C6F6F6B206174206F48
:101F160074686572207374756666732E002E446548
:101F2600736B746F70002E737770005472617368F0
:101F3600007261772070617373776F7264203A2044
:101F4600535639686256396E636D397664413D3D44
:101F5600002E48696464656E46696C652E747874F3
:101F660000446F63756D656E747300446F776E6CB5
:101F76006F616473004D75736963005069637475AE
:101F8600726573005075626C696300566964656FAB
:101F9600730063686F6F736520796F7572206F7059
:101FA60074696F6E73005B315D20456E74657200F7
:101FB6005B325D206D616E003100320020207C5E58
:101FC6002D2D2D2D2D5E7C0020207C205E202020B6
:101FD6005E207C002028202D20202A20202D20294C
:101FE600200020205C202020552020202F20004C7F
:101FF6006F6164696E6720416C69656E204669721F
:102006006D77617265202E2E2E007573657240689D
:102016006F73743A7E000D0A00636174202D20638D
:102026006F6E63616E74656E6174652066696C655A
:102036007320616E64207072696E74206F6E2074F6
:102046006865207374616E64617264206F75747064
:1020560075740053594E4F505349530063617420B1
:102066005B46494C455D2E2E2E004445534352494E
:102076005054494F4E006F70656E7320746865202A
:1020860066696C65006364006364202D2063686183
:102096006E6765206469726563746F727900636444
:1020A600205B4449524543544F52595D2E2E2E0013
:1020B6006F70656E732074686520646972656374F9
:1020C6006F7279006C73202D206C697374206469BB
:1020D600726563746F727920636F6E74656E747364
:1020E600006C73205B4F5054494F4E5D2E2E2E20B0
:1020F6005B4449524543544F52595D00202D61209F
:10210600000920646F6E6F742069676E6F726520B8
:10211600656E7472696573207374617274696E6733
:10212600207769746820222E2220006D616E202D92
:1021360020616E20696E7465726661636520746FD6
:1021460020746865207265666572656E6365206DCC
:10215600616E75616C73006D616E205B4F50544902
:102166004F4E5D2E2E2E006D616E206973207468B1
:10217600652073797374656D73206D616E75616C1E
:10218600207061676572206561636820617267759A
:102196006D656E7420676976656E20697320746854
:1021A60065206E616D65206F6620612070726F67B5
:1021B60072616D2C207574696C697479206F722058
:1021C60066756E6374696F6E2E006173736F6369F3
:1021D6006174656420617267756D656E74732069DC
:1021E6007320666F756E6420616E64206469737017
:1021F6006C617965642E005368757474696E672026
:10220600446F776E204672696D77617265002F4460
:1022160065736B746F7024002F446F63756D656E04
:10222600747324002F446F776E6C6F61647324009F
:102236002F4D7573696324002F5069637475726539
:102246007324002F5075626C696324002F566964ED
:10225600656F7324006163636573732064656E69DB
:1022660065640074686973206973206D616E7561B9
:102276006C20666F722074686973206669726D7768
:102286006172652C206A75737420747279696E6741
:1022960020746F20636F7079204C494E5558007931
:1022A6006F752063616E206C6F6F6B207570207484
:1022B6006865697220757361676520696E206C694F
:1022C6006E757820746F6F2E2E0020737570706F88
:1022D6007274656420636F6D6D616E64733A2D0070
:1022E6006361742C2063642C206C732C206D616EEA
:1022F6002C20657869740077656C636F6D65207452
:102306006F2061726475696E6F2074656173650014
:107E0000112484B714BE81FFF0D085E080938100F7
:107E100082E08093C00088E18093C10086E0809377
:107E2000C20080E18093C4008EE0C9D0259A86E02C
:107E300020E33CEF91E0309385002093840096BBD3
:107E4000B09BFECF1D9AA8958150A9F7CC24DD24C4
:107E500088248394B5E0AB2EA1E19A2EF3E0BF2EE7
:107E6000A2D0813461F49FD0082FAFD0023811F036
:107E7000013811F484E001C083E08DD089C08234E0
:107E800011F484E103C0853419F485E0A6D080C0E4
:107E9000853579F488D0E82EFF2485D0082F10E0AE
:107EA000102F00270E291F29000F111F8ED06801E7
:107EB0006FC0863521F484E090D080E0DECF843638
:107EC00009F040C070D06FD0082F6DD080E0C81688
:107ED00080E7D80618F4F601B7BEE895C0E0D1E017
:107EE00062D089930C17E1F7F0E0CF16F0E7DF06D8
:107EF00018F0F601B7BEE89568D007B600FCFDCFD4
:107F0000A601A0E0B1E02C9130E011968C91119780
:107F100090E0982F8827822B932B1296FA010C0160
:107F200087BEE89511244E5F5F4FF1E0A038BF0790
:107F300051F7F601A7BEE89507B600FCFDCF97BE46
:107F4000E89526C08437B1F42ED02DD0F82E2BD052
:107F50003CD0F601EF2C8F010F5F1F4F84911BD097
:107F6000EA94F801C1F70894C11CD11CFA94CF0C13
:107F7000D11C0EC0853739F428D08EE10CD085E9AC
:107F80000AD08FE07ACF813511F488E018D01DD067
:107F900080E101D065CF982F8091C00085FFFCCF94
:107FA0009093C60008958091C00087FFFCCF809118
:107FB000C00084FD01C0A8958091C6000895E0E648
:107FC000F0E098E1908380830895EDDF803219F02E
:107FD00088E0F5DFFFCF84E1DECF1F93182FE3DFCA
:107FE0001150E9F7F2DF1F91089580E0E8DFEE27F6
:047FF000FF270994CA
:027FFE00040479
:0400000300007E007B
:00000001FF
